:100000000C9434000C94E6030C9405040C945100F9
:100010000C9451000C9451000C9451000C9451001C
:100020000C9451000C94C1050C9451000C94510097
:100030000C9451000C942B050C9451000C9451001D
:100040000C9424040C9451000C94CE060C94510092
:100050000C9425070C9451000C9451000C94510001
:100060000C9451000C94510011241FBECFEFD4E02A
:10007000DEBFCDBF11E0A0E0B1E0EEE5FFE002C0E1
:1000800005900D92A433B107D9F722E0A4E3B1E0C3
:1000900001C01D92AD31B207E1F70E9404060C9435
:1000A000AD070C940000EF92FF920F931F93CF9334
:1000B000DF9360914101709142018BE090E00E94DA
:1000C0009707609104018AE090E00E9485076091A3
:1000D0003F0189E090E00E948507C7E3D1E001E09D
:1000E00010E00F2EFFE3EF2EF1E0FF2EF02D6991CF
:1000F0007991C8010E9497070E5F1F4FCE15DF054B
:10010000B1F76AEA80E090E00E948507DF91CF9125
:100110001F910F91FF90EF9008959F92AF92BF9221
:10012000CF92DF92EF92FF920F931F93CF93DF93C3
:1001300080E090E00E9477078A3A09F07DC08AE06B
:1001400090E00E947707803D19F48093040103C07A
:1001500081ED809304018BE090E00E947F07AC0169
:10016000413D82E05807C0F49A01A9E8B8E80E942E
:100170006807929582958F7089279F7089276EE115
:10018000689F9001699F300D11244217530721F495
:10019000509342014093410189E090E00E9477072B
:1001A00001E010E00F2EF7E3EF2EF1E0FF2EF02D2F
:1001B000C0E0D0E0C82ED12CAA24A394B12C9C2E50
:1001C000C8010E947F07AC01803AE5E09E07B0F4C9
:1001D0009C01ADECBCEC0E946807969587959695BE
:1001E00087959C01220F331F220F331F820F931F0D
:1001F0004817590719F4F70151834083C601092CA8
:1002000002C0959587950A94E2F780FF0BC0C5015F
:1002100002C0880F991F9A94E2F790913F01892BB1
:1002200080933F0121960E5F1F4FF2E0EF0EF11C0D
:10023000C430D10521F602C00E945300DF91CF9156
:100240001F910F91FF90EF90DF90CF90BF90AF90F4
:100250009F9008951092850010928400E1E8F0E0EC
:10026000808185608083089516BC85B5846085BDD6
:1002700080914001811107C089E191E090930201D2
:100280008093010106C083E290E090930201809385
:10029000010182E080934001089580FF02C05F9ACF
:1002A00001C05F9881FF02C05E9A01C05E9882FF24
:1002B00002C05D9A01C05D9883FF02C05C9A01C0D4
:1002C0005C9884FF02C0289A01C0289885FF02C06C
:1002D000299A089529980895809145019DEC899F58
:1002E000212D1124269526952695322F30643093A2
:1002F0004601220F322F330F330F230F821B8064EE
:100300008093470180914401899F912D11249695F6
:1003100096959695292F206420934801990F292FAF
:10032000220F220F920F891B806480934901409114
:100330003F0150E0E6E4F1E080E090E09A01082E11
:1003400002C0359527950A94E2F720FF03C020816B
:1003500020612083019631968430910579F70895C4
:10036000CF93DF9340914101509142019A0136951C
:1003700027953695279536952795AFE4BBE10E94E2
:100380006807EC01D695C795D695C795D695C795BC
:100390008C2F8064809346019A01A9E8B8E80E94F6
:1003A0006807FC01F695E795F295E295EF70EF2767
:1003B000FF70EF279F01ADECBCEC0E9468079C0129
:1003C000369527953695279536952795C901880F37
:1003D000991F220F331F220F331F220F331F280FA5
:1003E000391FCF01821B930B8064809347012CE35C
:1003F0002E9FC0012F9F900D11249A01281B390BAD
:100400000E94680796958795969587959695879506
:100410008064809348019A010E9468079C01369588
:1004200027953695279536952795C901880F991FE9
:10043000220F331F220F331F220F331F280F391FA4
:10044000421B530B40644093490180910401803D5D
:1004500019F4C065C0934601DF91CF910895809152
:100460004101909142014E96813D22E0920728F48D
:100470009093420180934101089580ED92E0909322
:100480004201809341010895809141019091420180
:100490008F31910528F41092420110924101089584
:1004A0004E979093420180934101089580914101BC
:1004B00090914201892B21F481ED8093040104C0C5
:1004C00080910401813D19F40E942F0208950E9439
:1004D000440208958091410190914201892B21F4B9
:1004E00080ED8093040104C080910401803D19F4E3
:1004F0000E942F0208950E94440208958FE0809385
:1005000046018093470180934801809349010895F3
:10051000809136018F5F8064809346018FE08093E5
:100520004701809348018093490108950E94880201
:1005300080913F0190E00090360102C0959587952B
:100540000A94E2F780FF04C081E480934701089594
:1005500080E4809347010895E0913601F0E0EE0FCA
:10056000FF1FE95CFE4F408151819A013695279526
:100570003695279536952795AFE4BBE10E9468072D
:10058000969587959695879596958795806480939F
:1005900046019A01A9E8B8E80E946807FC01F695AF
:1005A000E795F295E295EF70EF27FF70EF279F0137
:1005B000ADECBCEC0E94680796958795969587955B
:1005C000969587959C01220F331F880F991F880FDE
:1005D000991F880F991F820F931F9F01281B390BAA
:1005E000C9018064809347012CE32E9FC0012F9F97
:1005F000900D11249A01281B390B0E9468079695CB
:100600008795969587959695879580648093480100
:100610009A010E9468079695879596958795969575
:1006200087959C01220F331F880F991F880F991FF0
:10063000880F991F820F931F481B590B40644093EA
:1006400049010895809103018430A1F028F481309C
:1006500041F0833061F014C0853079F0863021F0AC
:100660000FC00E946C0108950E94B00108950E947D
:10067000880208950E94960208950E94AC0208958F
:100680000E947E020895CF93DF93FC01838182351F
:1006900009F08AC0908590538781880F8056282F53
:1006A000220F220F820F980FC285C0538185880FB9
:1006B0008056282F220F220F820FC80F2485205327
:1006C0008385880F8056382F330F330F830F820FA7
:1006D00080934301D0E08CE3989FC00DD11D11247D
:1006E00080910401803D61F480914101909142012B
:1006F000C817D90710F4C056DA4FC81BD90B0CC065
:100700008091410190914201C80FD91FC03A85E004
:10071000D80710F0C05AD5409E01A9E8B8E80E9459
:10072000680796958795929582958F7089279F7017
:100730008927809345014CE3489F9001499F300DE4
:100740001124CE01821B930B8093440160913501EB
:1007500020913F0130E0E7E3F1E06E7F80E090E040
:10076000A901082E02C0559547950A94E2F740FF6B
:1007700006C0408151814C175D0709F46160019604
:1007800032968430910561F76093350160FD05C0B4
:100790000E9447061092350104C0613011F40E9496
:1007A00040060E9422030FC08581803319F487819F
:1007B000813349F08081843231F46DE270E085E06C
:1007C00091E00E949306DF91CF9108951F920F92BE
:1007D0000FB60F9211248F939F934A990AC08EE00F
:1007E00090E0909302018093010185B5846085BDFE
:1007F00003C085B5887F85BD109240019F918F9180
:100800000F900FBE0F901F9018951F920F920FB66A
:100810000F9211248F939F934B990AC08EE090E022
:10082000909302018093010185B5846085BD03C06A
:1008300085B5887F85BD109240019F918F910F9063
:100840000FBE0F901F9018951F920F920FB60F9228
:1008500011242F933F934F935F936F937F938F93C5
:100860009F93AF93BF93EF93FF938091010190917A
:10087000020101979093020180930101892B09F0F5
:10088000D9C085B5887F85BD8EE090E09093020148
:1008900080930101109285001092840080913501AF
:1008A00080FF06C08260809335010E944706C2C067
:1008B0000E9454064A9965C080910301843021F159
:1008C00028F4813041F0833099F055C0853071F1C2
:1008D000863039F050C083E0809303010E942A01E2
:1008E0004DC00E946A020E9434010E942A0146C043
:1008F00080913601882319F08150809336010E943F
:1009000034010E942A013AC081E090E00090360153
:1009100002C0880F991F0A94E2F7809590913F01D9
:10092000892380933F010E942A0128C080913601CB
:1009300090E0FC01EE0FFF1FE95CFE4F208131814A
:100940002530310550F4FC01EE0FFF1FE95CFE4F2E
:100950008BE995E09183808309C0FC01EE0FFF1FB6
:10096000E95CFE4F25503109318320830E942A0122
:100970000E94340103C081E0809303010E9422039E
:1009800059C04B9957C080910301843041F128F43C
:10099000813041F0833099F048C0853089F186304C
:1009A00039F043C086E0809303010E942A0140C0D1
:1009B0000E9456020E9434010E942A0139C080918F
:1009C00036018F5F843018F48093360103C083E0D2
:1009D000809336010E9434010E942A0129C081E0DF
:1009E00090E00090360102C0880F991F0A94E2F748
:1009F00090913F01892B80933F010E942A0118C0EA
:100A0000E0913601F0E0EE0FFF1FE95CFE4F8081C0
:100A10009181059660EA75E00E9454079183808376
:100A20000E9434010E942A0103C081E080930301E7
:100A30000E942203FF91EF91BF91AF919F918F91FF
:100A40007F916F915F914F913F912F910F900FBECA
:100A50000F901F9018951F920F920FB60F921124AE
:100A60002F933F934F935F936F937F938F939F93B6
:100A7000AF93BF93EF93FF93E1E8F0E08081887F2D
:100A8000808310928500109284000E944C06809111
:100A900003018430A1F018F4833059F028C0853068
:100AA00021F1863021F50E94530081E080930301FB
:100AB00021C084E0809303010E942A011BC0809121
:100AC0003F0190E00090360102C0959587950A9409
:100AD000E2F780FF06C085E0809303010E942A01AF
:100AE00009C081E08093030105C00E94530081E0AA
:100AF000809303010E942203FF91EF91BF91AF9178
:100B00009F918F917F916F915F914F913F912F9125
:100B10000F900FBE0F901F901895823081F028F42F
:100B2000882349F0813049F00895843061F048F01D
:100B3000853059F00895409A0895419A0895429A4F
:100B40000895439A0895449A0895459A08958230E5
:100B500081F028F4882349F0813049F008958430E9
:100B600061F048F0853059F0089540980895419813
:100B70000895429808954398089544980895459893
:100B800008951F920F920FB60F9211241F932F9367
:100B90003F934F935F936F937F938F939F93AF9305
:100BA000BF93CF93DF93EF93FF9310913401C12F45
:100BB000D0E0CA5BDE4F88810E944D01888186FFAC
:100BC00003C0812F0E948D05809100010E94A7051E
:100BD000109300011F5F1370109334010E945A0696
:100BE000FF91EF91DF91CF91BF91AF919F918F9145
:100BF0007F916F915F914F913F912F911F910F9036
:100C00000FBE0F901F9018958FE384B987B980EFBE
:100C10008AB98CE08BB92FEF8FE39BE021508040A5
:100C20009040E1F700C000000E948D0085E08093B5
:100C3000690083E08DBB14BC85B5887F85BDEEE679
:100C4000F0E080818160808310928000E1E8F0E034
:100C50008081887F8083EFE6F0E0808181608083FF
:100C60000E9485061092B000E1EBF0E08081856083
:100C70008083E0E7F0E08081816080837894FFCF1B
:100C80008CE890E090934D0180934C010895109270
:100C90004D0110924C01089582E090E090934F0135
:100CA00080934E012A9A089510924F0110924E019E
:100CB0002A9A089580914E0190914F01009731F04A
:100CC000019790934F0180934E0101C02A98809123
:100CD0004A0190914B01009731F0019790934B019D
:100CE00080934A01089580914C0190914D010097A5
:100CF00059F090934B0180934A0186E490E09093E1
:100D00004F0180934E012A9A08951092C50087E7FB
:100D10008093C4001092C00088ED8093C10086E0EB
:100D20008093C2000895CF93DF9320915001211149
:100D300032C021E020935001A62FB72FA134B10576
:100D400010F0A0E4B0E02DE0FD01E552FE4F20835D
:100D50002AE02183109791F0EBEDF1E0BD0140E036
:100D600050E020E030E0EC01C40FD51F48814193F2
:100D70002F5F3F4FA90126173707A9F7109254019B
:100D8000109253011296B0935201A0935101809199
:100D9000DB018093C600DF91CF9108951F920F92DF
:100DA0000FB60F9211242F933F934F935F936F933E
:100DB0007F938F939F93AF93BF93EF93FF93209174
:100DC0005501309156018091C600F901E756FE4F5A
:100DD0008083B90161507109FB01E756FE4F8081A4
:100DE0008D30E1F4F901E756FE4F8AE0808322500E
:100DF0003109A9E9B1E0E7E5F1E080E090E04D914B
:100E00004193019628173907D0F787E591E00E94B2
:100E10004303109256011092550106C02F5F3F4FB9
:100E20003093560120935501FF91EF91BF91AF91FF
:100E30009F918F917F916F915F914F913F912F91F2
:100E40000F900FBE0F901F9018951F920F920FB624
:100E50000F9211242F933F938F939F93EF93FF93C0
:100E60008091530190915401019690935401809385
:100E7000530120915101309152018217930718F0CC
:100E80001092500106C0FC01E552FE4F8081809314
:100E9000C600FF91EF919F918F913F912F910F90FD
:100EA0000FBE0F901F901895AA1BBB1B51E107C0E6
:100EB000AA1FBB1FA617B70710F0A61BB70B881FEA
:100EC000991F5A95A9F780959095BC01CD01089579
:100ED000A29FB001B39FC001A39F700D811D11247B
:100EE000911DB29F700D811D1124911D0895F999D6
:100EF000FECF92BD81BDF89A992780B50895A8E1EB
:100F0000B0E042E050E00C949F07262FF999FECF05
:100F100092BD81BDF89A019700B4021639F01FBA4C
:100F200020BD0FB6F894FA9AF99A0FBE089501966B
:100F3000272F0E9486070C948507DC01CB01FC015A
:100F4000F999FECF06C0F2BDE1BDF89A319600B422
:100F50000D9241505040B8F70895F894FFCF03FF29
:100F6000FF01D124504D544B3331342C302C312CD3
:100F7000302C302C302C302C302C302C302C302C91
:100F8000302C302C302C302C302C302C302A323974
:100F90000000FFFFFFFFFFFFFFFFFFFFFFFFFFFF5F
:100FA000FFFFFFFFFFFFFFFFFFFFFFFFFFFFFFFF51
:100FB000FFFFFFFFFFFFFFFFFFFFFFFFFFFFFFFF41
:100FC000FFFFFFFFFFFFFFFFFFFFFFFFFFFFFFFF31
:100FD000FFFFFFFFFFFFFFFFFFFFFFFFFFFFFFFF21
:00000001FF
